S010000065435654203530372E7372656306
S11300000C9401010C9437010C9437010C943701C2
S11300100C9437010C9437010C9437010C9437017C
S11300200C9437010C9437010C9437010C9437016C
S11300300C9437010C9437010C9437010C9437015C
S11300400C9437010C9437010C9437010C9437014C
S11300500C9437010C9437010C9437010C9437013C
S11300600C9437010C9437010C9437010C9437012C
S11300700C9437010C9437010C9437010C9437011C
S11300800C9437010C9437010C9437010C9437010C
S11300900C9437010C9437010C9437010C943701FC
S11300A00C9437010C9437010C9437010C94AC0276
S11300B00C94FB020C9437010C9437010C94370117
S11300C00C9437010C944A030C9437010C943701B7
S11300D00C9437010C9437010C9437010C943701BC
S11300E00C9437010C9437010C9437010C943701AC
S11300F00C9437010C9437010C9437010C9437019C
S11301000C9437010C9437010C9437010C9437018B
S11301100C9437010C9437010C9437010C9437017B
S11301200C9437010C9437010C9437010C9437016B
S11301300C9437010C9437010C9437010C9437015B
S11301400C9437010C9437010C9437010C9437014B
S11301500C9437010C9437010C9437010C9437013B
S11301600C9437010C9437010C9437010C9437012B
S11301700C9437010C9437010C9437010C9437011B
S11301800C9437010C9437010C9437010C9437010B
S11301900C9437010C9437010C9437010C943701FB
S11301A00C9437010C9437010C9437010C943701EB
S11301B00C9437010C9437010C9437010C943701DB
S11301C00C9437010C9437010C9437010C943701CB
S11301D00C9437010C9437010C9437010C943701BB
S11301E00C9437010C9437010C9437010C943701AB
S11301F00C9437010C9437010C9437010C949B0434
S11302009B0411241FBECFEFCDBFDFE3DEBF00E0B0
S11302100CBF18BE19BE1ABE1BBE10E2A0E0B0E2AD
S1130220E8E8FEE000E00BBF02C007900D92A432A4
S1130230B107D9F71BBE22E2A4E2B0E201C01D92CD
S1130240AB35B207E1F711E0C1E0D1E000E006C050
S113025021970109802FFE010E943907C030D10780
S113026080E00807A9F70E949C030C9442070C94B1
S113027000000F931F93CF93DF93CDB7DEB72A9778
S1130280CDBFDEBF8B839C834D835E836F830887E2
S113029019872A872B813C818D819E81AF81F90149
S11302A080839183A2832B813C8188859985AA854B
S11302B0F90183839483A5838D819E813F812A855F
S11302C0232BFC01228380EB90E020EB30E0F9014A
S11302D030812F81232BFC01208380EB90E020EBE5
S11302E030E0F90130812A85232BFC0120838D81A4
S11302F09E812D813E81F9012089287F2360FC01A4
S1130300208B19828F818A838A81882351F08A8184
S1130310882F90E0959587958A8389818F5F89835B
S1130320F3CF9F8180E1981751F480E891E029810F
S1130330FC01228380E891E029E0FC0122879F816F
S113034080E4981751F480E891E02981FC0123832B
S113035080E891E029E0FC01238700002A96CDBFC4
S1130360DEBFDF91CF911F910F910895CF93DF935B
S11303701F921F92CDB7DEB789839A8389819A81B0
S1130380FC01928180E1981731F480E099E0FC014E
S113039080A191A10DC089819A81FC01928180E4A0
S11303A0981731F480E499E0FC0180A191A100C088
S11303B00F900F90DF91CF9108950F931F93CF93D8
S11303C0DF9300D01F92CDB7DEB78A839B836C8303
S11303D08A819B81FC0111828A819B812C81FC0191
S11303E02083198299818C819817D8F48981082FE8
S11303F010E00E949306DC01CB014A815B819801E5
S1130400220F331F220F331F240F351F2E5F3F4F40
S1130410F90180839183A283B38389818F5F898368
S1130420E1CF0E949306DC01CB012A813B812E5649
S11304303E4FF90180839183A283B3830000249605
S1130440CDBFDEBFDF91CF911F910F910895CF9360
S1130450DF931F921F92CDB7DEB789839A83898178
S11304609A81FC018181282F30E089819A818E56FE
S11304709E4FFC0180819181A281B38149815A817F
S1130480220F331F220F331F240F351F2E5F3F4FC0
S1130490F90180839183A283B3830E949306DC01D4
S11304A0CB0129813A812E563E4FF90180839183F5
S11304B0A283B38389819A81FC01818121E0280F81
S11304C089819A81FC01218389819A81FC0121819E
S11304D089819A81FC018081281720F089819A8181
S11304E0FC01118200000F900F90DF91CF910895CD
S11304F0CF93DF93CDB7DEB7809100209091012098
S11305002091002030910120F90121852C7F226067
S1130510FC012187809100209091012020910220EC
S1130520FC012287809103209091042020910320D4
S113053030910420F9012185217F2260FC0121876B
S1130540809103209091042020910520FC012387B1
S11305500000DF91CF9108951F920F9200903F0009
S11305600F921124009038000F92109238000090DE
S113057039000F921092390000903A000F921092B5
S11305803A0000903B000F9210923B002F933F9350
S11305904F935F936F937F938F939F93AF93BF9387
S11305A0EF93FF93CF93DF93CDB7DEB789E990E262
S11305B00E9427020000DF91CF91FF91EF91BF913C
S11305C0AF919F918F917F916F915F914F913F91E7
S11305D02F910F9000923B000F9000923A000F90E1
S11305E0009239000F90009238000F9000923F0063
S11305F00F901F9018951F920F9200903F000F923A
S11306001124009038000F921092380000903900A5
S11306100F921092390000903A000F9210923A0013
S113062000903B000F9210923B002F933F934F9307
S11306305F936F937F938F939F93AF93BF93EF9346
S1130640FF93CF93DF93CDB7DEB78FE292E20E94A0
S113065012070000DF91CF91FF91EF91BF91AF910D
S11306609F918F917F916F915F914F913F912F91C6
S11306700F9000923B000F9000923A000F9000926E
S113068039000F90009238000F9000923F000F90B5
S11306901F9018951F920F9200903F000F92112403
S11306A0009038000F921092380000903A000F9298
S11306B010923A0000903B000F9210923B002F934F
S11306C03F934F935F938F939F93EF93FF93CF93B6
S11306D0DF93CDB7DEB781E08093582281E0809329
S11306E0592281E080935A2288E298E028E238E097
S11306F0F9014081518120E137E2240F351FFC01CB
S1130700208331830000DF91CF91FF91EF919F917E
S11307108F915F914F913F912F910F9000923B00E9
S11307200F9000923A000F90009238000F900092C0
S11307303F000F901F901895CF93DF93CDB7DEB78E
S11307402A97CDBFDEBF81E08093582281E0809359
S1130750592281E080935A220E9478020E9417064F
S113076088E392E20E94E60464E688E392E20E944F
S11307701F0582E492E20E94E60464E682E492E2C7
S11307800E941F0580E099E0FC0180A191A189836A
S11307909A838CE492E20E94B6018B839C8380E46A
S11307A099E0FC0180A191A18D839E8382E592E270
S11307B00E94B6018F83988719861A86E3CFCF9259
S11307C0DF92EF92FF920F931F93CF93DF9300D0AA
S11307D01F92CDB7DEB789839A836B837C8389812B
S11307E09A81019709F09AC08B819C81019609F046
S11307F095C0C12CD12C760100E010E020E83FE345
S113080040E050E060E87FE384E290E20E949C05CF
S1130810C12CD12C760100E010E098014AE057ED9C
S113082063E27CE38BE490E20E949C05C12CD12C12
S1130830760100E010E098014AE057ED63E27CE3C2
S113084082E790E20E949C0568E089E990E20E94B8
S1130850DD0168E08FE292E20E94E806E0900C205D
S1130860F0900D2000910E202091092030910A2053
S113087040910B208091062090910720A0910820A0
S11308806701E02E8901242FAC016A2F88E392E2EC
S11308900E94A804E0901B20F0901C2000911D20D1
S11308A0209118203091192040911A208091152010
S11308B090911620A09117206701E02E8901242F22
S11308C0AC016A2F82E492E20E94A80420911220D3
S11308D0309113204091142080910F20909110208A
S11308E0A09111208901242FAC016A2F8CE492E29B
S11308F00E9439012091212030912220409123200F
S113090080911E2090911F20A09120208901242FE6
S1130910AC016A2F82E592E20E943901000024961C
S1130920CDBFDEBFDF91CF911F910F91FF90EF906C
S1130930DF90CF900895CF93DF93CDB7DEB76FEFFD
S11309407FEF81E090E00E94DF03DF91CF91089573
S1130950CF92DF92EF920F931F93CF93DF93CDB794
S1130960DEB72B97CDBFDEBF89839A834B835C832D
S11309706D830E831F832887C986DA86EB862981D7
S11309803A818B819C81AD81F90180839183A2831B
S113099029813A818E819F81A885F901838394837B
S11309A0A58329813A8189859A85AB85F901868356
S11309B09783A08700002B96CDBFDEBFDF91CF9138
S11309C01F910F91EF90DF90CF900895CF93DF9315
S11309D01F921F92CDB7DEB789839A8389819A814A
S11309E0FC018081918129813A81F9012081318141
S11309F0F901408129813A81F901528129813A81A1
S1130A00F9012581252B242BFC01208389819A81DE
S1130A10FC018681978129813A81F90126813781F8
S1130A20F901408129813A81F9012085242BFC01B7
S1130A30208300000F900F90DF91CF910895CF9302
S1130A40DF9300D0CDB7DEB789839A836B838B8124
S1130A5088234CF48B8181958B8389819A8121E051
S1130A60FC01218704C089819A81FC0111868B8154
S1130A70853614F084E68B832B8189819A81FC016D
S1130A8086819781A085422FBC018A2F0E94B306DC
S1130A908B818823B9F489819A81FC0180819181B9
S1130AA029813A81F9012281FC01268389819A8175
S1130AB0FC018381948129813A81F9012581FC011A
S1130AC0268333C089819A81FC0181858823B9F00A
S1130AD089819A81FC018081918129813A81F9017E
S1130AE02281FC01268389819A81FC01838194817E
S1130AF029813A81F9012581FC01258316C0898168
S1130B009A81FC018081918129813A81F9012281B4
S1130B10FC01258389819A81FC0183819481298147
S1130B203A81F9012581FC01268300002396CDBF7B
S1130B30DEBFDF91CF910895CF92DF92EF92FF92C3
S1130B400F931F93CF93DF93CDB7DEB72E97CDBF0F
S1130B50DEBF89839A834B835C836D837E830F839B
S1130B60188729873A87CB86DC86ED86FE868981BD
S1130B709A81FC01108211821282138289819A81E6
S1130B80FC01148215821682178289819A81FC01E4
S1130B90108611861286138689819A81FC01148637
S1130BA015861686178689819A81FC01108A118A16
S1130BB0128A138A89819A81FC01148A89819A8113
S1130BC0FC01158A89819A81FC0113A214A215A241
S1130BD016A229813A818B819C81AD81BE81F90164
S1130BE0878B908FA18FB28F29813A818F819885CD
S1130BF0A985BA85F901838F948FA58FB68F298132
S1130C003A818B859C85AD85BE85F901878F90A33C
S1130C10A1A3B2A300002E96CDBFDEBFDF91CF917A
S1130C201F910F91FF90EF90DF90CF900895CF9395
S1130C30DF93CDB7DEB780E891E024E8FC012083A0
S1130C4080E098E020E038E0F9012081207F2860EE
S1130C50FC01208381E891E020ECFC01208380E406
S1130C6098E020E438E0F9012081207F2960FC012C
S1130C70208381E098E021E038E0F90120812061BF
S1130C80FC01208387E098E023E0FC01208383E0DB
S1130C9099E022E831E0F90120812066FC012083FB
S1130CA080E099E021E0FC01208383E499E023E8DB
S1130CB031E0F90120812066FC01208380E499E081
S1130CC021E0FC01208386E29AE020E23EE4FC017C
S1130CD02083318381E09AE021E03AE0F901208128
S1130CE02360FC01208381E09AE021E03AE0F901ED
S1130CF020812064FC01208381E09AE021E03AE035
S1130D00F90120812068FC01208380E09AE020E042
S1130D103AE0F9012081207F2160FC01208300005A
S1130D20DF91CF910895CF93DF93CDB7DEB780E6FF
S1130D3098E0FC0180819181CC01A0E0B0E0AC019D
S1130D403327222780E298E0FC0180819181CC0145
S1130D50A0E0B0E0822B932BA42BB52BBC01CD01DA
S1130D60DF91CF910895CF93DF9300D01F92CDB739
S1130D70DEB769837A838B834C839B8184E09817E5
S1130D8071F48CE29AE02C81422F50E068EC649F6D
S1130D909001659F300D1124FC01208331839B81D8
S1130DA088E0981771F48EE29AE02C81422F50E08B
S1130DB068EC649F9001659F300D1124FC01208331
S1130DC0318300002496CDBFDEBFDF91CF9108951B
S1130DD0CF93DF9300D0CDB7DEB789839A836B833B
S1130DE089819A812B81FC0120830E949306DC0176
S1130DF0CB0129813A81F90181839283A383B4834E
S1130E000E949306DC01CB0129813A81F901858393
S1130E109683A783B08700002396CDBFDEBFDF9102
S1130E20CF910895CF93DF931F921F92CDB7DEB772
S1130E3089839A8389819A81FC0185819681A7811E
S1130E40B08529813A81F90181839283A383B48394
S1130E500E949306DC01CB0129813A81F901858343
S1130E609683A783B08700000F900F90DF91CF91F6
S1130E700895EE0FFF1F881F8BBF0790F691E02D9A
S10B0E801BBE1994F894FFCF86
S1130E8880060180060200060100060280060400AE
S1130E98061000062000060400060880060800065E
S1070EA8400006807C
S9030000FC
