:100000000C9413010C9441010C9441010C94410196
:100010000C9441010C9441010C9441010C94410158
:100020000C9441010C9441010C9441010C94410148
:100030000C9441010C9441010C9441010C94410138
:100040000C9441010C9441010C9441010C94410128
:100050000C9441010C9441010C9441010C94410118
:100060000C9441010C9441010C9441010C94410108
:100070000C9441010C9441010C9441010C944101F8
:100080000C9441010C9441010C9441010C944101E8
:100090000C9441010C9441010C9441010C944101D8
:1000A0000C9441010C9441010C9441010C944101C8
:1000B0000C9441010C9441010C9441010C944101B8
:1000C0000C9441010C9441010C9441010C944101A8
:1000D0000C9441010C9441010C9441010C94410198
:1000E0000C9441010C9441010C9441010C94410188
:1000F0000C9441010C9441010C9441010C94410178
:100100000C9441010C9441010C9441010C94410167
:100110000C9441010C9441010C9441010C94410157
:100120000C9441010C9441010C9441010C94410147
:100130000C9441010C9441010C9441010C94410137
:100140000C9441010C9441010C9441010C94410127
:100150000C9441010C9441010C9441010C94410117
:100160000C9441010C9441010C9441010C94410107
:100170000C9441010C9441010C9441010C944101F7
:100180000C9441010C9441010C9441010C944101E7
:100190000C9441010C9441010C9441010C944101D7
:1001A0000C9441010C9441010C9441010C944101C7
:1001B0000C9441010C9441010C9441010C944101B7
:1001C0000C9441010C9441010C9441010C944101A7
:1001D0000C9441010C9441010C9441010C94410197
:1001E0000C9441010C9441010C9441010C94410187
:1001F0000C9441010C9441010C9441010C947F0436
:100200000C9416030C94DF030C9476020C94940562
:100210000C94D6010C943406D60176021603DF0343
:100220007F049405340611241FBECFEFCDBFDFE35A
:10023000DEBF00E00CBF18BE19BE1ABE1BBE18E21E
:10024000A0E0B0E2E8E9FCE000E00BBF02C00790EC
:100250000D92A433B107D9F71BBE11E0C3E1D1E081
:1002600000E006C021970109802FFE010E9441068F
:10027000CC30D10780E00807A9F70E9423030C9433
:100280004A060C940000CF93DF9300D01F92CDB7A5
:10029000DEB789839A836B837C8389819A810197F6
:1002A00009F07DC08B819C81019609F078C080E8BF
:1002B00096E028E1FC01A0E0B0E201900D922A95C1
:1002C000E1F780E896E028E1FC01A9E1B0E20190C5
:1002D0000D922A95E1F780E096E028E1FC01A2E387
:1002E000B0E201900D922A95E1F780E096E028E1D6
:1002F000FC01ABE4B0E201900D922A95E1F780E8B1
:1003000096E028E1FC01A4E6B0E201900D922A9566
:10031000E1F780E096E028E1FC01ADE7B0E2019072
:100320000D922A95E1F780E096E028E1FC01A6E92C
:10033000B0E201900D922A95E1F780E096E028E185
:10034000FC01AFEAB0E201900D922A95E1F780E05E
:1003500096E028E1FC01A8ECB0E201900D922A950C
:10036000E1F780E896E028E1FC01A1EEB0E201901F
:100370000D922A95E1F780E096E028E1FC01AAEFD2
:10038000B0E201900D922A95E1F780E096E028E135
:10039000FC01A3E1B1E201900D922A95E1F7000082
:1003A0002496CDBFDEBFDF91CF910895CF93DF9329
:1003B000CDB7DEB76FEF7FEF81E090E00E944301A1
:1003C000DF91CF910895CF93DF9300D01F92CDB7E7
:1003D000DEB789839A836B837C8389819A810197B5
:1003E00009F07DC08B819C81019609F078C080E87E
:1003F00096E028E1FC01ACE2B1E201900D922A9571
:10040000E1F780E896E028E1FC01A5E4B1E2019083
:100410000D922A95E1F780E096E028E1FC01AEE537
:10042000B1E201900D922A95E1F780E096E028E193
:10043000FC01A7E7B1E201900D922A95E1F780E86F
:1004400096E028E1FC01A0E9B1E201900D922A9525
:10045000E1F780E096E028E1FC01A9EAB1E2019031
:100460000D922A95E1F780E096E028E1FC01A2ECEC
:10047000B1E201900D922A95E1F780E096E028E143
:10048000FC01ABEDB1E201900D922A95E1F780E01D
:1004900096E028E1FC01A4EFB1E201900D922A95CB
:1004A000E1F780E896E028E1FC01ADE0B2E20190DE
:1004B0000D922A95E1F780E096E028E1FC01A6E2A2
:1004C000B2E201900D922A95E1F780E096E028E1F2
:1004D000FC01AFE3B2E201900D922A95E1F7000032
:1004E0002496CDBFDEBFDF91CF910895CF93DF93E8
:1004F000CDB7DEB76FEF7FEF81E090E00E94E301C0
:10050000DF91CF910895CF93DF9300D01F92CDB7A5
:10051000DEB789839A836B837C8389819A81019773
:1005200009F07DC08B819C81019609F078C080E83C
:1005300096E028E1FC01A8E5B2E201900D922A952F
:10054000E1F780E896E028E1FC01A1E7B2E2019042
:100550000D922A95E1F780E096E028E1FC01AAE8F7
:10056000B2E201900D922A95E1F780E096E028E151
:10057000FC01A3EAB2E201900D922A95E1F780E82E
:1005800096E028E1FC01ACEBB2E201900D922A95D5
:10059000E1F780E096E028E1FC01A5EDB2E20190F0
:1005A0000D922A95E1F780E096E028E1FC01AEEE9D
:1005B000B2E201900D922A95E1F780E096E028E101
:1005C000FC01A7E0B3E201900D922A95E1F780E0EB
:1005D00096E028E1FC01A0E2B3E201900D922A9599
:1005E000E1F780E896E028E1FC01A9E3B3E201909D
:1005F0000D922A95E1F780E096E028E1FC01A2E562
:10060000B3E201900D922A95E1F780E096E028E1AF
:10061000FC01ABE6B3E201900D922A95E1F70000F0
:100620002496CDBFDEBFDF91CF910895CF93DF93A6
:10063000CDB7DEB76FEF7FEF81E090E00E948302DD
:10064000DF91CF910895CF93DF93CDB7DEB70E94AE
:100650008C0480E096E02CE0FC01218380E896E0A9
:1006600028E0FC01218380E096E028E0FC0126835D
:1006700080E096E024E0FC01258386E29AE020E613
:100680003AEEFC01208331838EE29AE020EA3CE8D6
:10069000FC0120833183FFCFCF93DF9300D01F92E3
:1006A000CDB7DEB789839A836B837C8389819A81F6
:1006B000019709F07DC08B819C81019609F078C07B
:1006C00080E896E028E1FC01A4E8B3E201900D92F5
:1006D0002A95E1F780E896E028E1FC01ADE9B3E274
:1006E00001900D922A95E1F780E096E028E1FC0167
:1006F000A6EBB3E201900D922A95E1F780E096E037
:1007000028E1FC01AFECB3E201900D922A95E1F7EC
:1007100080E896E028E1FC01A8EEB3E201900D929A
:100720002A95E1F780E096E028E1FC01A1E0B4E23F
:1007300001900D922A95E1F780E096E028E1FC0116
:10074000AAE1B4E201900D922A95E1F780E096E0EB
:1007500028E1FC01A3E3B4E201900D922A95E1F7B0
:1007600080E096E028E1FC01ACE4B4E201900D9257
:100770002A95E1F780E896E028E1FC01A5E6B4E2DD
:1007800001900D922A95E1F780E096E028E1FC01C6
:10079000AEE7B4E201900D922A95E1F780E096E091
:1007A00028E1FC01A7E9B4E201900D922A95E1F756
:1007B00000002496CDBFDEBFDF91CF910895CF9387
:1007C000DF93CDB7DEB76FEF7FEF81E090E00E945F
:1007D0004C03DF91CF910895CF93DF9300D01F9208
:1007E000CDB7DEB789839A836B837C8389819A81B5
:1007F000019709F07DC08B819C81019609F078C03A
:1008000080E896E028E1FC01A0EBB4E201900D92B3
:100810002A95E1F780E896E028E1FC01A9ECB4E232
:1008200001900D922A95E1F780E096E028E1FC0125
:10083000A2EEB4E201900D922A95E1F780E096E0F5
:1008400028E1FC01ABEFB4E201900D922A95E1F7AB
:1008500080E896E028E1FC01A4E1B5E201900D9268
:100860002A95E1F780E096E028E1FC01ADE2B5E2EF
:1008700001900D922A95E1F780E096E028E1FC01D5
:10088000A6E4B5E201900D922A95E1F780E096E0AA
:1008900028E1FC01AFE5B5E201900D922A95E1F760
:1008A00080E096E028E1FC01A8E7B5E201900D9216
:1008B0002A95E1F780E896E028E1FC01A1E9B5E29C
:1008C00001900D922A95E1F780E096E028E1FC0185
:1008D000AAEAB5E201900D922A95E1F780E096E050
:1008E00028E1FC01A3ECB5E201900D922A95E1F715
:1008F00000002496CDBFDEBFDF91CF910895CF9346
:10090000DF93CDB7DEB76FEF7FEF81E090E00E941D
:10091000EC03DF91CF910895CF93DF93CDB7DEB78E
:1009200080E891E024E8FC01208380E098E020E06A
:1009300038E0F9012081207F2860FC01208380E8D5
:1009400091E020ECFC01218380E498E020E438E091
:10095000F9012081207F2960FC01208380E098E05C
:1009600020E038E0F90121812061FC01218380E051
:1009700098E022E0FC01278383E099E020E831E061
:10098000F90122812066FC01208380E099E021E0CA
:10099000FC01208383E499E020E831E0F901238120
:1009A0002066FC01208380E499E021E0FC012083A3
:1009B00081E09AE021E03AE0F90120812360FC0126
:1009C000208381E09AE021E03AE0F901208120646F
:1009D000FC01208381E09AE021E03AE0F9012081E6
:1009E0002068FC01208380E09AE020E03AE0F901F1
:1009F0002081207F2160FC0120830000DF91CF91C6
:100A00000895CF93DF9300D01F92CDB7DEB78983CF
:100A10009A836B837C8389819A81019709F07DC0D9
:100A20008B819C81019609F078C080E896E028E1EE
:100A3000FC01ACEDB5E201900D922A95E1F780E85A
:100A400096E028E1FC01A5EFB5E201900D922A9510
:100A5000E1F780E096E028E1FC01AEE0B6E201902B
:100A60000D922A95E1F780E096E028E1FC01A7E2EB
:100A7000B6E201900D922A95E1F780E896E028E130
:100A8000FC01A0E4B6E201900D922A95E1F780E026
:100A900096E028E1FC01A9E5B6E201900D922A95C5
:100AA000E1F780E096E028E1FC01A2E7B6E20190E0
:100AB0000D922A95E1F780E096E028E1FC01ABE891
:100AC000B6E201900D922A95E1F780E096E028E1E8
:100AD000FC01A4EAB6E201900D922A95E1F780E8C4
:100AE00096E028E1FC01ADEBB6E201900D922A956B
:100AF000E1F780E096E028E1FC01A6EDB6E2019086
:100B00000D922A95E1F780E096E028E1FC01AFEE36
:100B1000B6E201900D922A95E1F700002496CDBF30
:100B2000DEBFDF91CF910895CF93DF93CDB7DEB7CE
:100B30006FEF7FEF81E090E00E940105DF91CF91A0
:100B40000895CF93DF9300D01F92CDB7DEB789838E
:100B50009A836B837C8389819A81019709F07DC098
:100B60008B819C81019609F078C080E896E028E1AD
:100B7000FC01A8E0B7E201900D922A95E1F780E828
:100B800096E028E1FC01A1E2B7E201900D922A95DE
:100B9000E1F780E096E028E1FC01AAE3B7E20190EA
:100BA0000D922A95E1F780E096E028E1FC01A3E5AB
:100BB000B7E201900D922A95E1F780E896E028E1EE
:100BC000FC01ACE6B7E201900D922A95E1F780E0D6
:100BD00096E028E1FC01A5E8B7E201900D922A9584
:100BE000E1F780E096E028E1FC01AEE9B7E2019090
:100BF0000D922A95E1F780E096E028E1FC01A7EB51
:100C0000B7E201900D922A95E1F780E096E028E1A5
:100C1000FC01A0EDB7E201900D922A95E1F780E882
:100C200096E028E1FC01A9EEB7E201900D922A9529
:100C3000E1F780E096E028E1FC01A2E0B8E2019053
:100C40000D922A95E1F780E096E028E1FC01ABE106
:100C5000B8E201900D922A95E1F700002496CDBFED
:100C6000DEBFDF91CF910895CF93DF93CDB7DEB78D
:100C70006FEF7FEF81E090E00E94A105DF91CF91BF
:100C80000895EE0FFF1F881F8BBF0790F691E02D90
:080C90001BBE1994F894FFCF7C
:100C9800000000000000000000000000000000004C
:100CA800000000000000000001000000000000003B
:100CB800000000000000000000000000000000002C
:100CC800000200000000000000000000000000001A
:100CD800000000000000000000000100000000000B
:100CE80000000000000000000000000000000000FC
:100CF80000000002000000000000000000000000EA
:100D080000000000000000000000000004000000D7
:100D180000000000000000000000000000000000CB
:100D280000000000001000000000000000000000AB
:100D3800000000000000000000000000000020008B
:100D4800000000000000000000000000000000009B
:100D58000000000000000004000000000000000087
:100D6800000000000000000000000000000000007B
:100D78000800000000000000000000000000000063
:100D88000000000000000000000800000000000053
:100D9800000000000000000000000000000000004B
:100DA80000004000000000000000000000000000FB
:100DB80000000000000000000000008000000000AB
:100DC800000000000000000000000000000000001B
:100DD800000000000100000000000000000000000A
:100DE80000000000000000000000000000020000F9
:100DF80000000000000000000000000000000000EB
:100E080000000000000001000000000000000000D9
:100E180000000000000000000000000000000002C8
:100E280000000000000000000000000000000000BA
:100E380000000000000000000400000000000000A6
:100E4800000000000000000000000000000000009A
:100E5800001000000000000000000000000000007A
:100E6800000000000000000000002000000000005A
:100E7800000000000000000000000000000000006A
:100E88000000000400000000000000000000000056
:100E98000000000000000000000000000800000042
:100EA800000000000000000000000000000000003A
:100EB8000000000000080000000000000000000022
:100EC80000000000000000000000000000004000DA
:100ED800000000000000000000000000000000000A
:100EE800000000000000008000000000000000007A
:100EF80000000000000000000000000000000000EA
:100F080001000000000000000000000000000000D8
:100F180000000000000000000002000000000000C7
:100F280000000000000000000000000000000000B9
:100F380000000100000000000000000000000000A8
:100F48000000000000000000000000020000000097
:100F58000000000000000000000000000000000089
:100F68000000000004000000000000000000000075
:100F78000000000000000000000000000010000059
:100F88000000000000000000000000000000000059
:100F98000000000000002000000000000000000029
:100FA8000000000000000000000000000000000435
:100FB8000000000000000000000000000000000029
:100FC8000000000000000000080000000000000011
:100FD8000000000000000000000000000000000009
:100FE80000080000000000000000000000000000F1
:100FF80000000000000000000000400000000000A9
:1010080000000000000000000000000000000000D8
:101018000000008000000000000000000000000048
:1010280000000000000000000000000001000000B7
:1010380000000000000000000000000000000000A8
:101048000000000000020000000000000000000096
:101058000000000000000000000000000000010087
:101068000000000000000000000000000000000078
:101078000000000000000002000000000000000066
:101088000000000000000000000000000000000058
:101098000400000000000000000000000000000044
:1010A8000000000000000000001000000000000028
:1010B8000000000000000000000000000000000028
:1010C80000002000000000000000000000000000F8
:1010D8000000000000000000000000040000000004
:1010E80000000000000000000000000000000000F8
:1010F80000000000080000000000000000000000E0
:1011080000000000000000000000000000080000CF
:1011180000000000000000000000000000000000C7
:101128000000000000004000000000000000000077
:101138000000000000000000000000000000008027
:101148000000000000000000000000000000000097
:101158000000000000000000010000000000000086
:101168000000000000000000000000000000000077
:101178000002000000000000000000000000000065
:101188000000000000000000000001000000000056
:101198000000000000000000000000000000000047
:1011A8000000000200000000000000000000000035
:1011B8000000000000000000000000000400000023
:1011C8000000000000000000000000000000000017
:1011D80000000000001000000000000000000000F7
:1011E80000000000000000000000000000002000D7
:1011F80000000000000000000000000000000000E7
:1012080000000000000000040000000000000000D2
:1012180000000000000000000000000000000000C6
:1012280008000000000000000000000000000000AE
:10123800000000000000000000080000000000009E
:101248000000000000000000000000000000000096
:101258000000400000000000000000000000000046
:1012680000000000000000000000008000000000F6
:101278000000000000000000000000000000000066
:101288000000000001000000000000000000000055
:101298000000000000000000000000000002000044
:1012A8000000000000000000000000000000000036
:1012B8000000000000000100000000000000000025
:1012C8000000000000000000000000000000000214
:1012D8000000000000000000000000000000000006
:1012E80000000000000000000400000000000000F2
:1012F80000000000000000000000000000000000E6
:1013080000100000000000000000000000000000C5
:1013180000000000000000000000200000000000A5
:1013280000000000000000000000000000000000B5
:1013380000000004000000000000000000000000A1
:10134800000000000000000000000000080000008D
:101358000000000000000000000000000000000085
:10136800000000000008000000000000000000006D
:101378000000000000000000000000000000400025
:101388000000000000000000000000000000000055
:1013980000000000000000800000000000000000C5
:1013A8000000000000000000000000000000000035
:1013B8000100000000000000000000000000000024
:1013C8000000000000000000000200000000000013
:1013D8000000000000000000000000000000000005
:1013E80000000100000000000000000000000000F4
:1013F80000000000000000000000000200000000E3
:1014080000000000000000000000000000000000D4
:1014180000000000040000000000000000000000C0
:1014280000000000000000000000000000100000A4
:1014380000000000000000000000000000000000A4
:101448000000000000002000000000000000000074
:101458000000000000000000000000000000000480
:101468000000000000000000000000000000000074
:10147800000000000000000008000000000000005C
:101488000000000000000000000000000000000054
:10149800000800000000000000000000000000003C
:1014A80000000000000000000000400000000000F4
:1014B8000000000000000000000000000000000024
:0414C80000000080A0
:00000001FF
