S010000065435654203530372E7372656306
S11300000C9401010C9437010C9437010C943701C2
S11300100C9437010C9437010C9437010C9437017C
S11300200C9437010C9437010C9437010C9437016C
S11300300C9437010C9437010C9437010C9437015C
S11300400C9437010C9437010C9437010C9437014C
S11300500C9437010C9437010C9437010C9437013C
S11300600C9437010C9437010C9437010C9437012C
S11300700C9437010C9437010C9437010C9437011C
S11300800C9437010C9437010C9437010C9437010C
S11300900C9437010C9437010C9437010C943701FC
S11300A00C9437010C9437010C9437010C94C2035F
S11300B00C9411040C9437010C9437010C943701FF
S11300C00C9437010C9460040C9437010C943701A0
S11300D00C9437010C9437010C9437010C943701BC
S11300E00C9437010C9437010C9437010C943701AC
S11300F00C9437010C9437010C9437010C9437019C
S11301000C9437010C9437010C9437010C9437018B
S11301100C9437010C9437010C9437010C9437017B
S11301200C9437010C9437010C9437010C9437016B
S11301300C9437010C9437010C9437010C9437015B
S11301400C9437010C9437010C9437010C9437014B
S11301500C9437010C9437010C9437010C9437013B
S11301600C9437010C9437010C9437010C9437012B
S11301700C9437010C9437010C9437010C9437011B
S11301800C9437010C9437010C9437010C9437010B
S11301900C9437010C9437010C9437010C943701FB
S11301A00C9437010C9437010C9437010C943701EB
S11301B00C9437010C9437010C9437010C943701DB
S11301C00C9437010C9437010C9437010C943701CB
S11301D00C9437010C9437010C9437010C943701BB
S11301E00C9437010C9437010C9437010C943701AB
S11301F00C9437010C9437010C9437010C94F207DA
S1130200F20711241FBECFEFCDBFDFE3DEBF00E056
S11302100CBF18BE19BE1ABE1BBE11E2A0E0B0E2AC
S1130220E8E6FCE100E00BBF02C007900D92A83B9A
S1130230B107D9F71BBE24E2A8EBB1E201C01D92BD
S1130240AB30B207E1F711E0C1E0D1E000E006C055
S113025021970109802FFE010E94290EC030D10789
S113026080E00807A9F70E941E070C94320E0C9434
S113027000000F931F93CF93DF93CDB7DEB72A9778
S1130280CDBFDEBF8B839C834D835E836F830887E2
S113029019872A872B813C818D819E81AF81F90149
S11302A080839183A2832B813C8188859985AA854B
S11302B0F90183839483A5838D819E813F812A855F
S11302C0232BFC01228380EB90E020EB30E0F9014A
S11302D030812F81232BFC01208380EB90E020EBE5
S11302E030E0F90130812A85232BFC0120838D81A4
S11302F09E812D813E81F9012089287F2360FC01A4
S1130300208B19828F818A838A81882351F08A8184
S1130310882F90E0959587958A8389818F5F89835B
S1130320F3CF9F8180E1981751F480E891E029810F
S1130330FC01228380E891E029E0FC0122879F816F
S113034080E4981751F480E891E02981FC0123832B
S113035080E891E029E0FC01238700002A96CDBFC4
S1130360DEBFDF91CF911F910F910895CF93DF935B
S11303701F921F92CDB7DEB789839A8389819A81B0
S1130380FC01928180E1981731F480E099E0FC014E
S113039080A191A10DC089819A81FC01928180E4A0
S11303A0981731F480E499E0FC0180A191A100C088
S11303B00F900F90DF91CF910895CF93DF931F9209
S11303C01F92CDB7DEB789839A8389819A81FC0114
S11303D0928180E1981729F480E099E0FC0110A251
S11303E011A289819A81FC01928180E4981729F4F1
S11303F080E499E0FC0110A211A200000F900F907C
S1130400DF91CF9108950F931F93CF93DF9300D083
S11304101F92CDB7DEB78A839B836C838A819B81CD
S1130420FC0111828A819B812C81FC012083198229
S113043099818C819817D8F48981082F10E00E9443
S1130440950BDC01CB014A815B819801220F331F9C
S1130450220F331F240F351F2E5F3F4FF901808376
S11304609183A283B38389818F5F8983E1CF0E94C3
S1130470950BDC01CB012A813B812E563E4FF901BD
S113048080839183A283B38300002496CDBFDEBF13
S1130490DF91CF911F910F910895CF93DF931F9216
S11304A01F92CDB7DEB789839A8389819A81FC0133
S11304B08181282F30E089819A818E569E4FFC01DC
S11304C080819181A281B38149815A81220F331F96
S11304D0220F331F240F351F2E5F3F4FF9018083F6
S11304E09183A283B3830E94950BDC01CB01298104
S11304F03A812E563E4FF90180839183A283B383C0
S113050089819A81FC01818121E0280F89819A8166
S1130510FC01218389819A81FC01218189819A814D
S1130520FC018081281720F089819A81FC011182C5
S113053000000F900F90DF91CF910895EF92FF92FA
S11305400F931F93CF93DF931F921F92CDB7DEB704
S113055089839A830E94950B9B01AC0189819A81BE
S1130560FC018181882F90E069817A81880F991F2D
S1130570880F991F860F971F0296FC018081918135
S1130580A281B38179018A01E81AF90A0A0B1B0BCB
S1130590D801C70121E080349244AF40B10508F48A
S11305A020E0222319F080E090E02BC089819A8119
S11305B08E569E4FFC012081318142815381898175
S11305C09A81FC018181882F90E069817A81880F6A
S11305D0991F880F991F860F971F0296FC0180812F
S11305E09181A281B381281B390B4A0B5B0B80E0FC
S11305F09EE0A7E2B7E0BC01CD010E94070EDA013C
S1130600C9010F900F90DF91CF911F910F91FF902F
S1130610EF900895CF93DF93CDB7DEB7809100209C
S1130620909101202091002030910120F901218531
S11306302C7F2260FC012187809100209091012071
S113064020910220FC0122878091032090910420B4
S11306502091032030910420F9012185217F22601B
S1130660FC01218780910320909104202091052092
S1130670FC0123870000DF91CF910895CF93DF938E
S113068000D01F92CDB7DEB769837A838B839C83B6
S113069020E030E0A90169817A818B819C810E94EC
S11306A0A80C88232CF4809124209091252022C02A
S11306B020E030E048EC52E469817A818B819C81AE
S11306C00E94950D18162CF48091EC209091ED2049
S11306D011C069817A818B819C810E94B40CDC01F8
S11306E0CB01882F90E0880F991F8C5D9F4DFC01F2
S11306F0808191812496CDBFDEBFDF91CF91089593
S1130700CF93DF9300D01F92CDB7DEB769837A838E
S11307108B839C8320E030E0A90169817A818B81FD
S11307209C810E94A80C88232CF48091EE20909147
S1130730EF2022C020E030E048EC52E469817A8165
S11307408B819C810E94950D18162CF48091B62102
S11307509091B72111C069817A818B819C810E941B
S1130760B40CDC01CB01882F90E0880F991F8251D3
S11307709F4DFC01808191812496CDBFDEBFDF9126
S1130780CF9108951F920F9200903F000F92112471
S1130790009038000F9210923800009039000F92A8
S11307A01092390000903A000F9210923A00009093
S11307B03B000F9210923B002F933F934F935F9314
S11307C06F937F938F939F93AF93BF93EF93FF9315
S11307D0CF93DF93CDB7DEB78DE292E20E944D0254
S11307E00000DF91CF91FF91EF91BF91AF919F9165
S11307F08F917F916F915F914F913F912F910F90C6
S113080000923B000F9000923A000F900092390042
S11308100F90009238000F9000923F000F901F90AD
S113082018951F920F9200903F000F921124009090
S113083038000F9210923800009039000F921092F5
S1130840390000903A000F9210923A0000903B0059
S11308500F9210923B002F933F934F935F936F93AC
S11308607F938F939F93AF93BF93EF93FF93CF9314
S1130870DF93CDB7DEB783EC93E20E94140C000043
S1130880DF91CF91FF91EF91BF91AF919F918F91A4
S11308907F916F915F914F913F912F910F900092B3
S11308A03B000F9000923A000F90009239000F9095
S11308B0009238000F9000923F000F901F901895FF
S11308C01F920F9200903F000F9211240090380065
S11308D00F921092380000903A000F9210923A0052
S11308E000903B000F9210923B002F933F934F9345
S11308F05F938F939F93EF93FF93CF93DF93CDB742
S1130900DEB781E08093F52381E08093F62381E0D4
S11309108093F72388E298E028E238E0F9014081E7
S1130920518120E137E2240F351FFC0120833183FC
S11309300000DF91CF91FF91EF919F918F915F9193
S11309404F913F912F910F9000923B000F90009296
S11309503A000F90009238000F9000923F000F90E1
S11309601F901895CF93DF93CDB7DEB780910824FD
S1130970882F90E08130910559F1823091051CF463
S1130980892B49F0E0C08230910509F466C00397D1
S113099009F482C0D8C048E45DE060E070E088EB10
S11309A091E20E945E0960E088EB91E20E947C097A
S11309B064E688EB91E20E94900988EB91E20E9440
S11309C0FD0A81E08093F42381E080930824BBC076
S11309D01092F8231092F9231092FA231092FB2319
S11309E01092FC231092FD231092FE231092FF23F9
S11309F060E070E088EC92E40E9480039C0140E097
S1130A0050E060E070E0CB01209300243093012497
S1130A104093022450930324609304247093052488
S1130A2080930624909307248DE292E20E949E0212
S1130A30813F9A4030F08091F423882311F081E0C3
S1130A4001C080E0882309F47BC088EB91E20E9416
S1130A50FD0A82E08093082473C08DE292E20E9432
S1130A609E02803F9A4030F09091F42381E08927E0
S1130A70882311F081E001C080E0882321F081E027
S1130A80809308245FC08091F523882309F45AC019
S1130A9083E08093082456C08DE292E20E949E0275
S1130AA0CC01A0E0B0E0AC01BD0188EB91E20E9472
S1130AB0A40988EB91E20E94250ADC01CB01BC0168
S1130AC0CD010E943E039C0140E050E060E070E0F4
S1130AD0CB012093F8233093F9234093FA235093C6
S1130AE0FB236093FC237093FD238093FE23909358
S1130AF0FF2388EB91E20E94250ADC01CB01BC01B3
S1130B00CD010E9480039C0140E050E060E070E071
S1130B10CB0120930024309301244093022450936A
S1130B2003246093042470930524809306249093F3
S1130B3007241092F52382E080930824000003C068
S1130B40000001C00000DF91CF910895EF92FF9261
S1130B500F931F93CF93DF93CDB7DEB78091092412
S1130B60882F90E082309105E1F1833091052CF4D7
S1130B70009759F0019701F19EC08330910509F463
S1130B8056C0049709F45AC096C08CEC93E20E94B4
S1130B903D086CE98FED91E20E947C0964E68FEDDB
S1130BA091E20E94900960E08CEC93E20E94660856
S1130BB081E0809309247FC06BEF8CEC93E20E9468
S1130BC066080E94950BDC01CB018093EC23909383
S1130BD0ED23A093EE23B093EF2382E080930924C6
S1130BE06AC00E94950B9B01AC018091EC2390910B
S1130BF0ED23A091EE23B091EF2379018A01E81A45
S1130C00F90A0A0B1B0BD801C70121E08134924475
S1130C10AF40B10508F420E0222309F44BC080EE74
S1130C2093E20E94DD0183E08093092443C0809114
S1130C30F623882319F084E0809309242091F82373
S1130C403091F9234091FA235091FB236091FC23C6
S1130C507091FD238091FE239091FF23DA01C90155
S1130C60AC01BD018FED91E20E945E0980EE93E23A
S1130C700E94B601CC01A0E0B0E0AC01BD018FED53
S1130C8091E20E94A4098FED91E20E94250ADC0101
S1130C90CB01BC01CD010E94AD0CDC01CB01682F5E
S1130CA08CEC93E20E9466081092F62383E0809312
S1130CB0092401C00000DF91CF911F910F91FF9093
S1130CC0EF900895EF92FF920F931F93CF93DF93CA
S1130CD0CDB7DEB780910A24882F90E08230910549
S1130CE0E1F1833091052CF4009759F0019701F15B
S1130CF09EC08330910509F456C0049709F45AC084
S1130D0096C086ED93E20E943D086CE986E092E28B
S1130D100E947C0964E686E092E20E94900960E009
S1130D2086ED93E20E94660881E080930A247FC0E6
S1130D306BEF86ED93E20E9466080E94950BDC013E
S1130D40CB018093F0239093F123A093F223B093EB
S1130D50F32382E080930A246AC00E94950B9B01CE
S1130D60AC018091F0239091F123A091F223B091F2
S1130D70F32379018A01E81AF90A0A0B1B0BD8013B
S1130D80C70121E081349244AF40B10508F420E06A
S1130D90222309F44BC086EE93E20E94DD0183E036
S1130DA080930A2443C08091F723882319F084E0B8
S1130DB080930A242091002430910124409102243C
S1130DC05091032460910424709105248091062499
S1130DD090910724DA01C901AC01BD0186E092E2D9
S1130DE00E945E0986EE93E20E94B601CC01A0E067
S1130DF0B0E0AC01BD0186E092E20E94A40986E065
S1130E0092E20E94250ADC01CB01BC01CD010E94C3
S1130E10AD0CDC01CB01682F86ED93E20E946608DD
S1130E201092F72383E080930A2401C00000DF912D
S1130E30CF911F910F91FF90EF900895CF93DF937F
S1130E40CDB7DEB781E08093F52381E08093F6236C
S1130E5081E08093F7230E940A030E94190B0E94E9
S1130E60B2040E94A6050E946206F9CFCF92DF92D7
S1130E70EF92FF920F931F93CF93DF9300D01F92B3
S1130E80CDB7DEB789839A836B837C8389819A810A
S1130E90019709F09AC08B819C81019609F095C055
S1130EA0C12CD12C760100E010E020E83FE340E0C3
S1130EB050E060E87FE388EB91E20E94E308C12CF4
S1130EC0D12C760100E010E098014AE057ED63E28E
S1130ED07CE38FED91E20E94E308C12CD12C7601D2
S1130EE000E010E098014AE057ED63E27CE386E01D
S1130EF092E20E94E30868E08DE292E20E9403021B
S1130F0068E083EC93E20E94EA0BE0900C20F090FE
S1130F100D2000910E202091092030910A2040914B
S1130F200B208091062090910720A0910820670152
S1130F30E02E8901242FAC016A2F8CEC93E20E94ED
S1130F40FF07E0901B20F0901C2000911D202091B1
S1130F5018203091192040911A20809115209091E9
S1130F601620A09117206701E02E8901242FAC01DF
S1130F706A2F86ED93E20E94FF07209112203091A0
S1130F8013204091142080910F2090911020A09163
S1130F9011208901242FAC016A2F80EE93E20E9474
S1130FA039012091212030912220409123208091E9
S1130FB01E2090911F20A09120208901242FAC0194
S1130FC06A2F86EE93E20E94390100002496CDBF79
S1130FD0DEBFDF91CF911F910F91FF90EF90DF90D3
S1130FE0CF900895CF93DF93CDB7DEB76FEF7FEF48
S1130FF081E090E00E943607DF91CF910895CF926F
S1131000DF92EF920F931F93CF93DF93CDB7DEB7A9
S11310102B97CDBFDEBF89839A834B835C836D831B
S11310200E831F832887C986DA86EB8629813A8155
S11310308B819C81AD81F90180839183A283298175
S11310403A818E819F81A885F90183839483A58346
S113105029813A8189859A85AB85F90186839783AD
S1131060A08700002B96CDBFDEBFDF91CF911F91EB
S11310700F91EF90DF90CF900895CF93DF931F925D
S11310801F92CDB7DEB789839A8389819A81FC0147
S11310908081918129813A81F901428129813A81B2
S11310A0F9012581242BFC01218389819A81FC018A
S11310B08681978129813A81F9012085FC01218368
S11310C000000F900F90DF91CF910895CF93DF939D
S11310D000D0CDB7DEB789839A836B838B81882355
S11310E04CF48B8181958B8389819A8121E0FC0169
S11310F0218704C089819A81FC0111868B81853600
S113110014F084E68B832B8189819A81FC0186818A
S11311109781A085422FBC018A2F0E94B50B8B8139
S11311208823B9F489819A81FC0180819181298184
S11311303A81F9012281FC01268389819A81FC018B
S11311408381948129813A81F9012581FC012683D7
S113115033C089819A81FC0181858823B9F0898112
S11311609A81FC018081918129813A81F90122814E
S1131170FC01268389819A81FC01838194812981E0
S11311803A81F9012581FC01258316C089819A8160
S1131190FC018081918129813A81F9012281FC013C
S11311A0258389819A81FC018381948129813A81F3
S11311B0F9012581FC01268300002396CDBFDEBF03
S11311C0DF91CF910895CF92DF92EF92FF920F9328
S11311D01F93CF93DF93CDB7DEB72E97CDBFDEBF7E
S11311E089839A834B835C836D837E830F83188703
S11311F029873A87CB86DC86ED86FE8689819A81AB
S1131200FC01108211821282138289819A81FC016D
S1131210148215821682178289819A81FC011086B4
S113122011861286138689819A81FC01148615869B
S11312301686178689819A81FC01108A118A128A7E
S1131240138A89819A81FC01148A89819A81FC011B
S1131250158A89819A81FC0113A214A215A216A2EF
S113126029813A818B819C81AD81BE81F901878B73
S1131270908FA18FB28F29813A818F819885A9851A
S1131280BA85F901838F948FA58FB68F29813A810E
S11312908B859C85AD85BE85F901878F90A3A1A31D
S11312A0B2A300002E96CDBFDEBFDF91CF911F9178
S11312B00F91FF90EF90DF90CF900895CF93DF933D
S11312C000D000D0CDB7DEB789839A834B835C838B
S11312D06D837E8329813A818B819C81AD81BE811E
S11312E0F90180839183A283B38300002696CDBF46
S11312F0DEBFDF91CF910895CF93DF9300D0CDB7B8
S1131300DEB789839A836B8389819A812B81FC015F
S1131310248B00002396CDBFDEBFDF91CF910895CB
S1131320CF93DF9300D0CDB7DEB789839A836B83E5
S113133089819A812B81FC01258B00002396CDBFE6
S1131340DEBFDF91CF910895EF92FF920F931F9329
S1131350CF93DF9300D000D0CDB7DEB789839A83D3
S11313604B835C836D837E8389819A81FC018085B4
S11313709185A285B38529813A81F9018483958376
S1131380A683B78389819A81FC01208131814281BE
S113139053818B819C81AD81BE8179018A01E81AD8
S11313A0F90A0A0B1B0BD801C70129813A81F901FB
S11313B080879187A287B38789819A81FC01968966
S11313C081E089278823C9F089819A81FC012485D9
S11313D035854685578589819A81FC01808591856B
S11313E0A285B385820F931FA41FB51F29813A815B
S11313F0F90184879587A687B78789819A81FC013B
S1131400208531854285538589819A81FC018481B7
S11314109581A681B78179018A01E81AF90A0A0B34
S11314201B0BD801C70129813A81F901808B918B6B
S1131430A28BB38B00002696CDBFDEBFDF91CF9188
S11314401F910F91FF90EF9008958F929F92AF920A
S1131450BF92CF92DF92EF92FF92CF93DF931F92CE
S11314601F92CDB7DEB789839A8389819A81FC0163
S1131470C788D08CE18CF28C89819A81FC018085AB
S11314809185A285B385BC01CD010E94E50CDC01E8
S1131490CB019C01AD01C701B6010E949A0DDC018C
S11314A0CB014C015D0189819A81FC01C38CD48CF0
S11314B0E58CF68C89819A81FC0184859585A685C5
S11314C0B785BC01CD010E94E50CDC01CB019C0178
S11314D0AD01C701B6010E949A0DDC01CB019C014C
S11314E0AD01C501B4010E943C0CDC01CB014C01EF
S11314F05D0189819A81FC01C78CD0A0E1A0F2A092
S113150089819A81FC0180899189A289B389BC016E
S1131510CD010E94E50CDC01CB019C01AD01C701AA
S1131520B6010E949A0DDC01CB019C01AD01C501FD
S1131530B4010E943C0CDC01CB0129813A81F90100
S113154083A394A3A5A3B6A389819A81FC01C3A014
S1131550D4A0E5A0F6A089819A81FC018489082E93
S1131560000C990BAA0BBB0BBC01CD010E94E50C2E
S1131570DC01CB019C01AD01C701B6010E94A80C9E
S11315808823F4F089819A81FC01C3A0D4A0E5A04A
S1131590F6A089819A81FC018589082E000C990B9B
S11315A0AA0BBB0BBC01CD010E94E50CDC01CB01F5
S11315B09C01AD01C701B6010E94950D181614F4E3
S11315C021E001C020E089819A81FC01268B898178
S11315D09A81FC0183A194A1A5A1B6A1BC01CD016E
S11315E00F900F90DF91CF91FF90EF90DF90CF900D
S11315F0BF90AF909F908F900895CF93DF931F92E9
S11316001F92CDB7DEB789839A8389819A81FC01C1
S1131610148615861686178689819A81FC01108A9C
S1131620118A128A138A00000F900F90DF91CF91D4
S11316300895CF93DF93CDB7DEB780E891E024E837
S1131640FC01208380E098E020E038E0F90120816B
S1131650207F2860FC01208381E891E020ECFC01DC
S1131660208380E498E020E438E0F9012081207FA1
S11316702960FC01208381E098E021E038E0F90151
S113168020812061FC01208387E098E023E0FC01B5
S1131690208383E099E022E831E0F901208120668B
S11316A0FC01208380E099E021E0FC01208383E4B5
S11316B099E023E831E0F90120812066FC012083D0
S11316C080E499E021E0FC01208386E29AE020E2B4
S11316D03EE4FC012083318381E09AE021E03AE09A
S11316E0F90120812360FC01208381E09AE021E05C
S11316F03AE0F90120812064FC01208381E09AE032
S113170021E03AE0F90120812068FC01208380E097
S11317109AE020E03AE0F9012081207F2160FC0179
S113172020830000DF91CF910895CF93DF93CDB74D
S1131730DEB780E698E0FC0180819181CC01A0E0D5
S1131740B0E0AC013327222780E298E0FC018081DD
S11317509181CC01A0E0B0E0822B932BA42BB52B7C
S1131760BC01CD01DF91CF910895CF93DF9300D0D9
S11317701F92CDB7DEB769837A838B834C839B81B9
S113178084E0981771F48CE29AE02C81422F50E0A7
S113179068EC649F9001659F300D1124FC01208347
S11317A031839B8188E0981771F48EE29AE02C8152
S11317B0422F50E068EC649F9001659F300D112426
S11317C0FC012083318300002496CDBFDEBFDF916E
S11317D0CF910895CF93DF9300D0CDB7DEB789833F
S11317E09A836B8389819A812B81FC0120830E94D7
S11317F0950BDC01CB0129813A81F9018183928324
S1131800A383B4830E94950BDC01CB0129813A8127
S1131810F90185839683A783B08700002396CDBF03
S1131820DEBFDF91CF910895CF93DF931F921F9274
S1131830CDB7DEB789839A8389819A81FC0185813A
S11318409681A781B08529813A81F90181839283A8
S1131850A383B4830E94950BDC01CB0129813A81D7
S1131860F90185839683A783B08700000F900F90BA
S1131870DF91CF9108955058BB27AA270E94530C9B
S11318800C945B0D0E944D0D38F00E94540D20F015
S113189039F49F3F19F426F40C944A0D0EF4E095A4
S11318A0E7FB0C94440DE92F0E946C0D58F3BA1712
S11318B0620773078407950720F079F4A6F50C9462
S11318C08E0D0EF4E0950B2EBA2FA02D0B01B9014D
S11318D090010C01CA01A0011124FF27591B99F0A2
S11318E0593F50F4503E68F11A16F040A22F232FAE
S11318F0342F4427585FF3CF469537952795A795FE
S1131900F0405395C9F77EF41F16BA0B620B730BA4
S1131910840BBAF09150A1F0FF0FBB1F661F771F15
S1131920881FC2F70EC0BA0F621F731F841F48F4CA
S1131930879577956795B795F7959E3F08F0B0CF53
S11319409395880F08F09927EE0F9795879508953A
S11319500E94200D08F481E008950E94B40C68945C
S1131960B1110C948F0D08950E94740D88F09F5747
S113197098F0B92F9927B751B0F0E1F0660F771FAF
S1131980881F991F1AF0BA95C9F714C0B13091F0A5
S11319900E948E0DB1E008950C948E0D672F782F60
S11319A08827B85F39F0B93FCCF38695779567956A
S11319B0B395D9F73EF490958095709561957F4FD6
S11319C08F4F9F4F0895E89409C097FB3EF490957C
S11319D08095709561957F4F8F4F9F4F9923A9F004
S11319E0F92F96E9BB279395F69587957795679593
S11319F0B795F111F8CFFAF4BB0F11F460FF1BC0D7
S1131A006F5F7F4F8F4F9F4F16C0882311F096E969
S1131A1011C0772321F09EE8872F762F05C0662317
S1131A2071F096E8862F70E060E02AF09A95660FD0
S1131A30771F881FDAF7880F9695879597F9089589
S1131A40990F0008550FAA0BE0E8FEEF16161706CB
S1131A50E807F907C0F012161306E407F50798F033
S1131A60621B730B840B950B39F40A2661F0232B4C
S1131A70242B252B21F408950A2609F4A140A695C8
S1131A808FEF811D811D089597F99F6780E870E0AD
S1131A9060E008959FEF80EC089500240A941616E0
S1131AA0170618060906089500240A941216130648
S1131AB0140605060895092E0394000C11F48823D6
S1131AC052F0BB0F40F4BF2B11F460FF04C06F5FF2
S1131AD07F4F8F4F9F4F089557FD9058440F551FC8
S1131AE059F05F3F71F04795880F97FB991F61F09C
S1131AF09F3F79F087950895121613061406551F13
S1131B00F2CF4695F1DF08C0161617061806991F7E
S1131B10F1CF86957105610508940895E894BB2773
S1131B2066277727CB0197F908950E94200D08F4C2
S1131B308FEF08950E94AD0D0C945B0D0E944D0D26
S1131B4038F00E94540D20F0952311F00C94440DAC
S1131B500C944A0D11240C948F0D0E946C0D70F39B
S1131B60959FC1F3950F50E0551F629FF001729F3E
S1131B70BB27F00DB11D639FAA27F00DB11DAA1F4D
S1131B80649F6627B00DA11D661F829F2227B00D9A
S1131B90A11D621F739FB00DA11D621F839FA00D25
S1131BA0611D221F749F3327A00D611D231F849F75
S1131BB0600D211D822F762F6A2F11249F575040CC
S1131BC09AF0F1F088234AF0EE0FFF1FBB1F661F47
S1131BD0771F881F91505040A9F79E3F510580F010
S1131BE00C94440D0C948F0D5F3FE4F3983ED4F3B2
S1131BF0869577956795B795F795E7959F5FC1F7B4
S1131C00FE2B880F911D9695879597F90895A1E26B
S1131C101A2EAA1BBB1BFD010DC0AA1FBB1FEE1F62
S1131C20FF1FA217B307E407F50720F0A21BB30BAD
S1131C30E40BF50B661F771F881F991F1A9469F729
S1131C4060957095809590959B01AC01BD01CF0185
S1131C500895EE0FFF1F881F8BBF0790F691E02DAC
S10B1C601BBE1994F894FFCF98
S1131C6880060180060200060100060280060400C0
S1131C780610000620000604000608800608000670
S1131C88400006802F3ECB3C713B1E3AD438923735
S1131C9859362735FC33D932BE31A9309C2F952EBD
S1131CA8952D9B2CA82BBA2AD329F12814283D2733
S1131CB86B269F25D724142455239B22E521342100
S1131CC88620DD1F371F951EF71D5C1DC51C311CA2
S1131CD8A01B121B871AFF197A19F8187918FC1710
S1131CE88117091794162116B0154115D4146A14CE
S1131CF801149B133613D41273121412B6115B1108
S1131D080111A8105110FC0FA80F550F040FB50EA0
S1131D18660E190ECE0D830D3A0DF20CAB0C650C44
S1131D28200CDD0B9A0B590B180BD90A9A0A5D0A79
S1131D38200AE409A9096F093609FE08C6088F08AC
S1131D4859082408F007BC07890757072507000026
S1131D588201F4025704AC05F40630085F09820ACC
S1131D689A0BA80CAC0DA70E980F811061113912AB
S1131D780A13D413971453150916BA1664170918B5
S1131D88A9184319D9196B1AF81A801B051C861C43
S1131D98031D7C1DF21D651ED51E411FAB1F12209D
S1131DA87620D72036219221ED2145229A22EE224F
S1131DB83F238F23DD2329247324BB2402254725AD
S1131DC88B25CD250E264D268B26C82603273D2791
S1131DD87627AD27E4271A284E288128B428E52831
S1131DE8152945297429A129CE29FA29252A502AF1
S1131DF87A2AA32ACB2AF22A192B3F2B652B8A2B62
S1131E08AE2BD22BF52B172C392C5A2C7B2C9B2C34
S10B1E18BB2CDB2CF92C182D66
S9030000FC
