S010000065435654203530372E7372656306
S11300000C940A010C9440010C9440010C9440019E
S11300100C9440010C9440010C9440010C94400158
S11300200C9440010C9440010C9440010C94400148
S11300300C9440010C9440010C9440010C94400138
S11300400C9440010C9440010C9440010C94400128
S11300500C9440010C9440010C9440010C94400118
S11300600C9440010C9440010C9440010C94400108
S11300700C9440010C9440010C9440010C944001F8
S11300800C9440010C9440010C9440010C944001E8
S11300900C9440010C9440010C9440010C944001D8
S11300A00C9440010C9440010C9440010C94900277
S11300B00C94C5020C9440010C9440010C94400132
S11300C00C9440010C94FA020C9440010C944001ED
S11300D00C9440010C9440010C9440010C94400198
S11300E00C9440010C9440010C9440010C94400188
S11300F00C9440010C9440010C9440010C94400178
S11301000C9440010C9440010C9440010C94400167
S11301100C9440010C9440010C9440010C94400157
S11301200C9440010C9440010C9440010C94400147
S11301300C9440010C9440010C9440010C94400137
S11301400C9440010C9440010C9440010C94400127
S11301500C9440010C9440010C9440010C94400117
S11301600C9440010C9440010C9440010C94400107
S11301700C9440010C9440010C9440010C944001F7
S11301800C9440010C9440010C9440010C944001E7
S11301900C9440010C9440010C9440010C944001D7
S11301A00C9440010C9440010C9440010C944001C7
S11301B00C9440010C9440010C9440010C944001B7
S11301C00C9440010C9440010C9440010C944001A7
S11301D00C9440010C9440010C9440010C94400197
S11301E00C9440010C9440010C9440010C94400187
S11301F00C9440010C9440010C9440010C944F0267
S11302000C9423080C9486010C94EE0486014F028E
S1130210EE04230811241FBECFEFCDBFDFE3DEBF02
S113022000E00CBF18BE19BE1ABE1BBE13E2A0E04C
S1130230B0E2ECEFF4E100E00BBF02C007900D92D6
S1130240A432B107D9F71BBE26E2A4E2B3E201C08F
S11302501D92A734B207E1F711E0CAE0D1E000E053
S113026006C021970109802FFE010E94730AC6303F
S1130270D10780E00807A9F70E94E3040C947C0AE4
S11302800C940000CF93DF93CDB7DEB79C0189E1D6
S1130290FE013696D90101900D928A95E1F799E114
S11302A0FE017F96D901599601900D929A95E1F736
S11302B09E8D98878FA989A3E0EBF0E08081892B3C
S11302C0808390818FA9892B80838E89887F836026
S11302D08E8B8E8D8111FFCF80913120811105C0CD
S11302E0E0E8F1E0128289E082879E8D80911820F7
S11302F0981305C0E0E8F1E0138289E08387DF9179
S1130300CF91089580E090E00895089588E1E0E0B9
S1130310F6E0A9E1B0E201900D928A95E1F788E157
S1130320E0E0F6E0A0E0B0E201900D928A95E1F7FA
S11303300895EF92FF920F931F93CF93DF937C0165
S1130340FC01118260836623C1F06150062F10E026
S11303500F5F1F4FC0E0D0E00E94E507FE01EE0FE3
S1130360FF1FEE0FFF1FEE0DFF1D62837383848357
S113037095832196C017D10779F70E94E507F70105
S1130380EE56FE4F6083718382839383DF91CF9116
S11303901F910F91FF90EF9008950F931F93CF93A8
S11303A0DF93EC0129818C010E561E4FF8018081E8
S11303B09181A281B381FE0134E0239FE00DF11D00
S11303C0112482839383A483B5830E94E507F801F3
S11303D0608371838283938389818F5F898398810A
S11303E0891708F01982DF91CF911F910F91089519
S11303F00F931F93CF93DF93EC010E94E5072981AC
S1130400A22FB0E0FE0134E0239FE00DF11D112482
S11304100281138124813581AB01BC01401B510B46
S1130420620B730B403452446F40710500F5FE01BA
S1130430EE56FE4F4081518162817381CD01880F58
S1130440991F880F991FC80FD91F8A819B81AC817E
S1130450BD819A01AB01281B390B4A0B5B0B60E091
S11304607EE087E297E00E943D0AC90102C080E075
S113047090E0DF91CF911F910F910895EBE4F0E2AA
S113048081858C7F82608187808D8287E2E3F0E2C0
S11304908185817F82608187808D8387089588E14B
S11304A0E0E8F6E0ABE4B0E201900D928A95E1F762
S11304B088E1E0E8F6E0A2E3B0E201900D928A95CB
S11304C0E1F70895CF92DF92EF92FF926B017C01E6
S11304D020E030E0A9010E94CA088823BCF020E093
S11304E030E048EC52E4C701B6010E94B70918167F
S11304F084F0C701B6010E94D608E62FF0E0EE0FA3
S1130500FF1FE65AFD4D8081918105C08FE29EE375
S113051002C085E297E0FF90EF90DF90CF900895BE
S11305201F920F920FB60F92112408B60F9218BEA5
S113053009B60F9219BE0BB60F921BBE2F933F93B1
S11305404F935F936F937F938F939F93AF93BF93D7
S1130550EF93FF938CE394E20E94CD01FF91EF911E
S1130560BF91AF919F918F917F916F915F914F91C7
S11305703F912F910F900BBE0F9009BE0F9008BEB4
S11305800F900FBE0F901F9018951F920F920FB6E9
S11305900F92112408B60F9218BE09B60F9219BE15
S11305A00BB60F921BBE2F933F934F935F936F93A2
S11305B07F938F939F93AF93BF93EF93FF9383E3C3
S11305C094E20E944908FF91EF91BF91AF919F91EE
S11305D08F917F916F915F914F913F912F910F90E8
S11305E00BBE0F9009BE0F9008BE0F900FBE0F9068
S11305F01F9018951F920F920FB60F92112408B6F0
S11306000F9218BE0BB60F921BBE8F939F93EF935E
S1130610FF9381E080932D2380932C2380932B23BD
S1130620E0E0F8E080A591A5805F984D80A791A7B0
S1130630FF91EF919F918F910F900BBE0F9008BE89
S11306400F900FBE0F901F901895CF92DF92EF92EC
S1130650FF9280912623813019F130F08230B9F174
S1130660833009F44CC09AC048E45DE060E070E077
S113067080E296E20E94EA0660E080E296E20E944E
S1130680F00664E680E296E20E94F30680E296E2D7
S11306900E94980781E080932E23809326237EC0B6
S11306A01092292310922A2388E19DE28093272324
S11306B0909328238CE394E20E94F801813F9A40AE
S11306C008F46CC080912E23811161C067C08CE353
S11306D094E20E94F801803F9A4020F080912E23FA
S11306E0811104C081E08093262358C080912D237A
S11306F0882309F453C083E0809326234FC08CE3FE
S113070094E20E94F801AC0160E070E080E296E2BD
S11307100E94F60680E296E20E9427070E94620287
S11307208093292390932A2380E296E20E9427074C
S11307306B017C0120E030E0A9010E94CA088823F3
S1130740BCF020E030E048EC52E4C701B6010E945E
S1130750B709181684F0C701B6010E94D608E62F1F
S1130760F0E0EE0FFF1FE057FE4D8081918105C040
S113077080E090E002C088E19DE28093272390937B
S1130780282310922D2382E08093262307C080E241
S113079096E20E94980782E080932623FF90EF90D0
S11307A0DF90CF9008950F931F938091252382307B
S11307B0B9F128F4882351F08130F9F079C08330FD
S11307C009F44BC0843009F44FC072C087EE93E241
S11307D00E9457066CE989EF95E20E94F00664E6F0
S11307E089EF95E20E94F30660E087EE93E20E94AF
S11307F0680681E0809325235BC06BEF87EE93E26C
S11308000E9468060E94E5076093332370933423A3
S1130810809335239093362382E08093252348C028
S11308200E94E5070091332310913423209135234E
S113083030913623DC01CB01801B910BA20BB30B4F
S113084081349244AF40B10598F189E693E20E9465
S1130850850183E0809325232BC080912C2388235A
S113086019F084E0809325234091292350912A2371
S113087060E070E089EF95E20E94EA0689E693E27F
S11308800E948201AC0160E070E089EF95E20E9471
S1130890F60689EF95E20E9427070E94CF0887EEAB
S11308A093E20E94680610922C2383E08093252310
S11308B01F910F9108950F931F93809124238230E9
S11308C0B9F128F4882351F08130F9F079C08330EC
S11308D009F44BC0843009F44FC072C08BE993E231
S11308E00E9457066CE982ED95E20E94F00664E6E8
S11308F082ED95E20E94F30660E08BE993E20E94A8
S1130900680681E0809324235BC06BEF8BE993E25C
S11309100E9468060E94E50760932F23709330239A
S1130920809331239093322382E08093242348C020
S11309300E94E50700912F23109130232091312349
S113094030913223DC01CB01801B910BA20BB30B42
S113095081349244AF40B10598F187E393E20E9459
S1130960850183E0809324232BC080912B2388234B
S113097019F084E080932423409127235091282365
S113098060E070E082ED95E20E94EA0687E393E27C
S11309900E948201AC0160E070E082ED95E20E9469
S11309A0F60682ED95E20E9427070E94CF088BE9A4
S11309B093E20E94680610922B2383E08093242301
S11309C01F910F9108950E943E020E94A2070E9467
S11309D025030E94D3030E945B04F9CFCF92DF92D8
S11309E0EF92FF920F931F9388E1E0E0F6E0A5E415
S11309F0B1E201900D928A95E1F788E1E0E0F6E03A
S1130A00ACE2B1E201900D928A95E1F788E1E0E869
S1130A10F6E0A3E1B1E201900D928A95E1F788E155
S1130A20E0E0F6E0AAEFB0E201900D928A95E1F7DA
S1130A3088E1E0E0F6E0A1EEB0E201900D928A9543
S1130A40E1F788E1E0E0F6E0A8ECB0E201900D9275
S1130A508A95E1F788E1E0E0F6E0AFEAB0E20190E0
S1130A600D928A95E1F788E1E0E8F6E0A6E9B0E2C4
S1130A7001900D928A95E1F788E1E0E0F6E0ADE7B8
S1130A80B0E201900D928A95E1F788E1E0E0F6E0AA
S1130A90A4E6B0E201900D928A95E1F7C12CD12C25
S1130AA0760100E010E020E83FE3B901A80180E20C
S1130AB096E20E94B606970186014AE057ED63E28A
S1130AC07CE389EF95E20E94B606970186014AE02D
S1130AD057ED63E27CE382ED95E20E94B60668E09E
S1130AE08CE394E20E94990168E083E394E20E941B
S1130AF036088DB79EB749978DBF9EBFADB7BEB7B9
S1130B00119689E1E3E1F1E201900D928A95E1F712
S1130B108DB79EB749978DBF9EBFADB7BEB711962F
S1130B2089E1ECE2F1E201900D928A95E1F78DB74B
S1130B309EB749978DBF9EBFADB7BEB7119689E1E9
S1130B40E5E4F1E201900D928A95E1F787EE93E2F4
S1130B500E9436068DB79EB7855B9F4F8DBF9EBFA3
S1130B6049978DBF9EBFADB7BEB7119689E1E6E93F
S1130B70F0E201900D928A95E1F78DB79EB74997FF
S1130B808DBF9EBFADB7BEB7119689E1EFEAF0E223
S1130B9001900D928A95E1F78DB79EB749978DBF65
S1130BA09EBFADB7BEB7119689E1E8ECF0E20190C3
S1130BB00D928A95E1F78BE993E20E9436068DB790
S1130BC09EB7855B9F4F8DBF9EBF49978DBF9EBFCC
S1130BD0ADB7BEB7119689E1E1EEF0E201900D9256
S1130BE08A95E1F78DB79EB749978DBF9EBFADB784
S1130BF0BEB7119689E1EAEFF0E201900D928A9571
S1130C00E1F789E693E20E9442018DB79EB7C2964E
S1130C108DBF9EBF49978DBF9EBFADB7BEB711961E
S1130C2089E1E4E6F0E201900D928A95E1F78DB74F
S1130C309EB749978DBF9EBFADB7BEB7119689E1E8
S1130C40EDE7F0E201900D928A95E1F787E393E2F4
S1130C500E9442018DB79EB7C2968DBF9EBF1F9161
S1130C600F91FF90EF90DF90CF900895CF93DF9393
S1130C70CDB7DEB729E1FE013696DC0101900D9275
S1130C802A95E1F729E1FE017F96DC01599601904E
S1130C900D922A95E1F729E1FE01F896DC01D2963E
S1130CA001900D922A95E1F7DF91CF910895FC010F
S1130CB09081808D892B8083918D81A9892B818F4F
S1130CC092A9DF01A65BBF4F8C91892B82AB08955B
S1130CD01F93CF93DF93EC0166233CF4619581E08D
S1130CE0FE01E55BFF4F808304C0FC01E55BFF4F21
S1130CF01082162F65360CF014E62FEF1203C00194
S1130D00112464E670E00E94290A6F938DB79EB7A0
S1130D1049978DBF9EBFADB7BEB7119689E1FE015D
S1130D20F29601900D928A95E1F70E9401088DB721
S1130D309EB74A968DBF9EBF111105C0888D8E83C4
S1130D4089A98F8F0FC0FE01E55BFF4F8081882347
S1130D5029F0888D8E8389A98E8F04C0888D8D8318
S1130D6089A98F8FDF91CF911F910895CF92DF9240
S1130D70EF92FF920F931F93FC0110821182128253
S1130D8013821482158216821782108611861286A7
S1130D9013861486158616861786108A118A128A77
S1130DA0138A148A158A13A214A215A216A2478BB9
S1130DB0508F618F728F038F148F258F368FC78E5C
S1130DC0D0A2E1A2F2A21F910F91FF90EF90DF90C9
S1130DD0CF900895FC014083518362837383089507
S1130DE0FC01648B0895FC01658B08950F931F9398
S1130DF0FC010085118522853385048315832683B0
S1130E00378380819181A281B381841B950BA60BCA
S1130E10B70B80879187A287B387468941110CC09D
S1130E204485558566857785480F591F6A1F7B1F42
S1130E304487558766877787801B910BA20BB30B7A
S1130E40808B918BA28BB38B1F910F910895CF92BE
S1130E50DF92EF92FF921F93CF93DF93EC016885AB
S1130E6079858A859B850E9407092F89388D498D4C
S1130E705A8D0E94BC096B017C016C857D858E8531
S1130E809F850E9407092B8D3C8D4D8D5E8D0E94A0
S1130E90BC099B01AC01C701B6010E945E086B014D
S1130EA07C01688979898A899B890E9407092F8D29
S1130EB038A149A15AA10E94BC099B01AC01C701F8
S1130EC0B6010E945E086B017C016BA37CA38DA319
S1130ED09EA36C89062E000C770B880B990B0E943D
S1130EE007099B01AC01C701B6010E94CA08882307
S1130EF09CF06D89062E000C770B880B990B0E94D1
S1130F0007099B01AC0111E0C701B6010E94B709B2
S1130F1018161CF010E001C011E01E8BC701B601C9
S1130F20DF91CF911F91FF90EF90DF90CF900895C4
S1130F30FC011486158616861786108A118A128A71
S1130F40138A0895CF93DF93A0E8B1E084E88C93EB
S1130F50E0E0F8E08081807F8860808380EC1196F7
S1130F608C931197C0E4D8E08881807F896088835E
S1130F7081818061818382E0878312968C911297AC
S1130F808066E0E0F9E083832FEF37E326A337A3FD
S1130F9091E0908313968C918066E0E4F9E083837A
S1130FA026A337A39083E0E0FAE081818360818304
S1130FB08181806181838181806281838081807F5E
S1130FC081608083DF91CF9108950F931F934091A7
S1130FD0600850916108809120089091210860E098
S1130FE070E0BA0155274427A0E0B0E08A019B01D4
S1130FF0082B192B2A2B3B2BC901B8011F910F91E8
S11310000895CF93DF93CDB7DEB78E8D90918F2166
S1131010891309C09F8D292F30E0322F2227209376
S1131020280A3093290A90917621891309C02F8DBB
S1131030822F90E0982F882780932A0A90932B0A76
S1131040DF91CF91089588E1E0E8F6E0A7E7B1E207
S113105001900D928A95E1F788E1E0E8F6E0AEE5CB
S1131060B1E201900D928A95E1F70895CF93DF9351
S1131070EC0168830E94E50769837A838B839C83F0
S11310800E94E5076D837E838F839887DF91CF91DC
S11310900895CF93DF93EC018D819E81AF81B88554
S11310A089839A83AB83BC830E94E5076D837E8327
S11310B08F839887DF91CF9108955058BB27AA2733
S11310C00E9475080C947D090E946F0938F00E94F3
S11310D0760920F039F49F3F19F426F40C946C0936
S11310E00EF4E095E7FB0C946609E92F0E948E0943
S11310F058F3BA17620773078407950720F079F449
S1131100A6F50C94B0090EF4E0950B2EBA2FA02D81
S11311100B01B90190010C01CA01A0011124FF27A0
S1131120591B99F0593F50F4503E68F11A16F0409B
S1131130A22F232F342F4427585FF3CF469537959A
S11311402795A795F0405395C9F77EF41F16BA0B5F
S1131150620B730B840BBAF09150A1F0FF0FBB1F0D
S1131160661F771F881FC2F70EC0BA0F621F731F56
S1131170841F48F4879577956795B795F7959E3FB3
S113118008F0B0CF9395880F08F09927EE0F979544
S1131190879508950E94420908F481E008950E9409
S11311A0D6086894B1110C94B10908950E94960967
S11311B088F09F5798F0B92F9927B751B0F0E1F014
S11311C0660F771F881F991F1AF0BA95C9F714C0C4
S11311D0B13091F00E94B009B1E008950C94B009C7
S11311E0672F782F8827B85F39F0B93FCCF38695FD
S11311F077956795B395D9F73EF49095809570955A
S113120061957F4F8F4F9F4F0895E89409C097FBD6
S11312103EF490958095709561957F4F8F4F9F4FC9
S11312209923A9F0F92F96E9BB279395F69587950D
S113123077956795B795F111F8CFFAF4BB0F11F4D0
S113124060FF1BC06F5F7F4F8F4F9F4F16C0882377
S113125011F096E911C0772321F09EE8872F762FAD
S113126005C0662371F096E8862F70E060E02AF0EE
S11312709A95660F771F881FDAF7880F96958795DA
S113128097F90895990F0008550FAA0BE0E8FEEFAF
S113129016161706E807F907C0F012161306E40736
S11312A0F50798F0621B730B840B950B39F40A262F
S11312B061F0232B242B252B21F408950A2609F40D
S11312C0A140A6958FEF811D811D089597F99F6711
S11312D080E870E060E008959FEF80EC08950024BA
S11312E00A941616170618060906089500240A9487
S11312F012161306140605060895092E0394000C0D
S113130011F4882352F0BB0F40F4BF2B11F460FF9B
S113131004C06F5F7F4F8F4F9F4F089557FD9058C4
S1131320440F551F59F05F3F71F04795880F97FBA5
S1131330991F61F09F3F79F087950895121613065F
S11313401406551FF2CF4695F1DF08C0161617068E
S11313501806991FF1CF86957105610508940895C3
S1131360E894BB2766277727CB0197F908950E9455
S1131370420908F48FEF08950E94CF090C947D0967
S11313800E946F0938F00E94760920F0952311F02D
S11313900C9466090C946C0911240C94B1090E94F4
S11313A08E0970F3959FC1F3950F50E0551F629F0E
S11313B0F001729FBB27F00DB11D639FAA27F00DAA
S11313C0B11DAA1F649F6627B00DA11D661F829FD1
S11313D02227B00DA11D621F739FB00DA11D621FB6
S11313E0839FA00D611D221F749F3327A00D611DD3
S11313F0231F849F600D211D822F762F6A2F1124B5
S11314009F5750409AF0F1F088234AF0EE0FFF1FE7
S1131410BB1F661F771F881F91505040A9F79E3F3E
S1131420510580F00C9466090C94B1095F3FE4F314
S1131430983ED4F3869577956795B795F795E79594
S11314409F5FC1F7FE2B880F911D9695879597F99D
S1131450089597FB072E16F4009407D077FD09D062
S11314600E945F0A07FC05D03EF4909581959F4F3A
S11314700895709561957F4F0895A1E21A2EAA1BD5
S1131480BB1BFD010DC0AA1FBB1FEE1FFF1FA21730
S1131490B307E407F50720F0A21BB30BE40BF50B2D
S11314A0661F771F881F991F1A9469F760957095B6
S11314B0809590959B01AC01BD01CF010895AA1BB5
S11314C0BB1B51E107C0AA1FBB1FA617B70710F02B
S11314D0A61BB70B881F991F5A95A9F7809590955D
S11314E0BC01CD010895EE0FFF1F881F8BBF07902D
S10F14F0F691E02D1BBE1994F894FFCF78
S11314FC00000000000000000000000000000000DC
S113150C000000000000000040000000000000008B
S113151C00000000000000000000000000000000BB
S113152C001000000000000000000000000000009B
S113153C0000000000000000000002000000000099
S113154C000000000000000000000000000000008B
S113155C000000010000000000000000000000007A
S113156C00000000000000000000000080000000EB
S113157C000000000000000000000000000000005B
S113158C000000000040000000000000000000000B
S113159C0000000000000000000000000000080033
S11315AC000000000000000000000000000000002B
S11315BC0000000000000008000000000000000013
S11315CC000000000000000000000000000000000B
S11315DC04000000000000000000000000000000F7
S11315EC00000000000000000020000000000000CB
S11315FC00000000000000000000000000000000DB
S113160C00001000000000000000000000000000BA
S113161C00000000000000000000000400000000B6
S113162C00000000000000000000000000000000AA
S113163C0000000002000000000000000000000098
S113164C0000000000000000000000000001000089
S113165C000000000000000000000000000000007A
S113166C0000000000000800000000000000000062
S113167C0000000000000000000000000000000456
S113168C00008201F4025704AC05F40630085F092B
S113169C820A9A0BA80CAC0DA70E980F811061113D
S11316AC39120A13D413971453150916BA1664175E
S11316BC0918A9184319D9196B1AF81A801B051C97
S11316CC861C031D7C1DF21D651ED51E411FAB1F00
S11316DC12207620D72036219221ED2145229A2200
S11316ECEE223F238F23DD2329247324BB240225DC
S11316FC47258B25CD250E264D268B26C82603275C
S113170C3D277627AD27E4271A284E288128B428AC
S113171CE528152945297429A129CE29FA29252A30
S113172C502A7A2AA32ACB2AF22A192B3F2B652B6F
S113173C8A2BAE2BD22BF52B172C392C5A2C7B2C19
S113174C9B2CBB2CDB2CF92C182D2F3ECB3C713B4A
S113175C1E3AD438923759362735FC33D932BE3138
S113176CA9309C2F952E952D9B2CA82BBA2AD329C6
S113177CF12814283D276B269F25D72414245523A0
S113178C9B22E52134218620DD1F371F951EF71D72
S113179C5C1DC51C311CA01B121B871AFF197A195E
S11317ACF8187918FC178117091794162116B01517
S11317BC4115D4146A1401149B133613D4127312E6
S11317CC1412B6115B110111A8105110FC0FA80FC3
S11317DC550F040FB50E660E190ECE0D830D3A0D72
S11317ECF20CAB0C650C200CDD0B9A0B590B180B83
S11317FCD90A9A0A5D0A200AE409A9096F0936096B
S113180CFE08C6088F0859082408F007BC07890786
S107181C570725073A
S9030000FC
